:020000040800F2
:10000000600D002099010008811C00087B11000888
:100010002D1A0008DF0900089B29000800000000D5
:10002000000000000000000000000000592300084C
:10003000350C000800000000592100085D2400086C
:10004000B3010008B3010008B3010008B3010008C0
:10005000B3010008B3010008B3010008B3010008B0
:10006000B3010008B3010008B3010008B3010008A0
:10007000B3010008B3010008B3010008B301000890
:10008000B3010008B3010008B3010008B301000880
:10009000B3010008B3010008B3010008B301000870
:1000A000B3010008B3010008B3010008B301000860
:1000B000C124000821260008B3010008B30100088C
:1000C000B3010008B3010008B3010008B301000840
:1000D000B30100089D270008B9270008B3010008F4
:1000E000B3010008B3010008B301000800F002F8F2
:1000F00000F042F80AA090E8000C82448344AAF180
:100100000107DA4501D100F037F8AFF2090EBAE87D
:100110000F0013F0010F18BFFB1A43F0010318473B
:10012000CC650000EC650000103A24BF78C878C1A7
:10013000FAD8520724BF30C830C144BF04680C60ED
:10014000704700000023002400250026103A28BF35
:1001500078C1FBD8520728BF30C148BF0B60704739
:10016000642900F09580782900F0CE800020704747
:100170001FB51FBD10B510BD00F0EAFA1146FFF71C
:10018000F7FF04F0D1FD00F008FB03B4FFF7F2FF26
:1001900003BC02F00BFC00000948804709480047F7
:1001A000FEE7FEE7FEE7FEE7FEE7FEE7FEE7FEE727
:1001B000FEE7FEE704480549054A064B7047000084
:1001C00061240008ED00000860070020600D002099
:1001D0006009002060090020704770B50446051FC3
:1001E00000F026FA0068002C14BF446870BD002C93
:1001F00018BFAC423CBF20466468F8D301680A18B7
:10020000AA4218BF456003D12A680546114401601F
:1002100028684119A1421CBF6C6070BD61686960AB
:1002200021680844286070BD0FB4044910B503AAC2
:10023000029800F05BFA10BC5DF814FB4C00002043
:1002400070B5044685690068C10601D5302600E016
:100250002026C00707D070BDD4E901213046904761
:10026000206A401C20626D1EF6D570BD70B5044634
:1002700085690078C00707D170BDD4E9012120202D
:100280009047206A401C20626D1EF6D570BD0000AC
:100290002DE9F0410646002410687529314616A55F
:1002A00010D0AFF30080002802DA404213A507E027
:1002B00031688A0701D512A502E0490704D511A5C6
:1002C000012401E0AFF3008000210A2206F1240797
:1002D00009E0B0FBF2FCB0FBF2F302FB1C00303093
:1002E00078541846491C0028F3D123462A46304644
:1002F000BDE8F04100F0A0B9000000002D000000B2
:100300002B0000002000000070B504460D46214679
:100310001068AFF300802188090502D50F4A7A449E
:1003200002E00E4A7A440E32002104F1240305E073
:1003300000F00F060009965D5E54491C0028F7D1B5
:1003400020780023000704D5702D02D009B10223C4
:1003500011322046BDE8704000F06EB98E63000097
:100360002DE9F05F894604464FF0000ADFF824B11A
:10037000FB44C0F820A02046E168884700287DD0D3
:10038000252806D0D4E901219047206A401C20622C
:10039000F1E700255F462046E168884720280646A9
:1003A00007DB312E05D2B81910F8200C08B105432F
:1003B000F1E7A80701D525F00405C4F81CA0002723
:1003C000C4F818A02A2E09D0304602F0E8FA38B353
:1003D00004EB8708303EC8F8186019E059F8041B90
:1003E000204604EB87029161E1688847012F0646A9
:1003F00018D1E069002820DA25F020051DE0D8F8A2
:10040000180000EB800006EB40003038C8F81800F8
:100410002046E1688847064602F0C1FA0028EED17E
:10042000012F0AD02E2E08D12046E16888477F1C74
:100430000646022F45F02005C4DBA069002803DA38
:10044000404245F00105A061E80701D025F0100504
:10045000A6B1A6F14100192802D8203645F400655E
:100460004A463146204625604D46FFF779FE60B189
:10047000012807D0ED1D25F0070000E007E000F19E
:10048000080978E705F1040975E730467AE7206A3C
:10049000BDE8F09F64630000032A40F2308010F052
:1004A000030C00F0158011F8013BBCF1020F62440F
:1004B00098BF11F801CB00F8013B38BF11F8013BA0
:1004C000A2F1040298BF00F801CB38BF00F8013B4D
:1004D00011F0030300F02580083AC0F0088051F8BD
:1004E000043B083A51F804CBA0E80810F5E7121DC8
:1004F0005CBF51F8043B40F8043BAFF30080D207E7
:1005000024BF11F8013B11F801CB48BF11F8012BB2
:1005100024BF00F8013B00F801CB48BF00F8012BD5
:10052000704710B5203AC0F00B80B1E81850203A5F
:10053000A0E81850B1E81850A0E81850BFF4F5AF83
:100540005FEA027C24BFB1E81850A0E8185044BF0D
:1005500018C918C0BDE810405FEA827C24BF51F87A
:10056000043B40F8043B08BF7047D20728BF31F86E
:10057000023B48BF11F8012B28BF20F8023B48BFBF
:1005800000F8012B704702F0FF0343EA032242EA1E
:10059000024200F002B84FF000020429C0F01280BD
:1005A00010F0030C00F01B80CCF1040CBCF1020F26
:1005B00018BF00F8012BA8BF20F8022BA1EB0C01FB
:1005C00000F00DB85FEAC17C24BF00F8012B00F8F1
:1005D000012B48BF00F8012B70474FF0000200B517
:1005E000134694469646203922BFA0E80C50A0E856
:1005F0000C50B1F12001BFF4F7AF090728BFA0E804
:100600000C5048BF0CC05DF804EB890028BF40F8CF
:10061000042B08BF704748BF20F8022B11F0804F11
:1006200018BF00F8012B704770477047704770473C
:1006300000487047080700202DE9F0470D4699460D
:100640009246044600F124080168880604D5E06952
:1006500021F01001216000E00120A84201DD471BCC
:1006600000E00027A1697A1902EB0900081AA061CD
:100670002078C00602D42046FFF7E2FD002608E0FD
:10068000D4E901211AF806009047206A401C761C24
:1006900020624E45F4DB2078C0060AD52046FFF7DD
:1006A000CFFD06E0D4E9012130209047206A401CAC
:1006B0002062381EA7F10107F4DC07E0D4E901212C
:1006C00018F805009047206A401C2062281EA5F1FA
:1006D0000105F3DC2046FFF7C9FD2078000602D5AE
:1006E0000220BDE8F0870120FBE70000074B70B552
:1006F0000D467B4400F015F80446284600F024F827
:1007000010B14FF0FF3070BD204670BD37230000A0
:10071000004870470007002001694A1C0261087800
:10072000704700B58FB0CDE9013100210591054931
:100730007944CDE9031011466846FFF711FE0FB06A
:1007400000BD0000E5FFFFFF007B00F08000704768
:100750007546FFF7DDFFAE4605006946534620F0BB
:100760000700854618B020B5FFF724FDBDE82040FE
:100770004FF000064FF000074FF000084FF0000B5D
:1007800021F00701AC46ACE8C009ACE8C009ACE810
:10079000C009ACE8C0098D46704710B50446AFF3F8
:1007A00000802046BDE81040FFF7EFBC00B585B0E3
:1007B0000121480201F0EEFC0121042001F0EAFCD5
:1007C0004FF4004001F0CAFC0020009003904FF469
:1007D0006020029000208DF805008DF804000120B3
:1007E0008DF8100069460D4800F060F801210B48B3
:1007F00000F016F8094800F0DDF800BF074800F0E7
:1008000031F80128FAD0054800F0E4F800BF0348A9
:1008100000F011F80128FAD005B000BD0024014015
:1008200021B1826842F00102826003E0826822F016
:10083000010282607047014600208A6802F00402CB
:100840000AB1012000E0002070470146C86C80B268
:1008500070470246002013680B400BB1012000E0F6
:1008600000207047014600208A6802F008020AB1A1
:10087000012000E00020704770B504460D462B466D
:1008800001222146084800F039F80121064800F00D
:1008900096F800BF02210448FFF7DBFF0028F9D0DB
:1008A0000148FFF7D2FF70BD0024014030B5024679
:1008B0000020002350680F4C20400D790C6844EA5A
:1008C00005242043506090680B4C2040D1E902542D
:1008D0002C434D7944EA450420439060D06A20F4CB
:1008E00070000C7C641EE4B2234340EA0350D062E3
:1008F00030BD0000FFFEF0FFFDF7F1FFF0B504464C
:100900000D4600200021092D11DDE068A5F10A0641
:1009100006EB4607072606FA07F18843A5F10A0603
:1009200006EB460603FA06F10843E0600CE0206996
:1009300005EB4507072606FA07F1884305EB450650
:1009400003FA06F108432061072A0FDA606B561E8E
:1009500006EB86071F2606FA07F18843561E06EBAC
:10096000860605FA06F10843606322E00D2A0FDAD5
:10097000206BD61F06EB86071F2606FA07F1884371
:10098000D61F06EB860605FA06F10843206310E041
:10099000E06AA2F10D0606EB86071F2606FA07F1AC
:1009A0008843A2F10D0606EB860605FA06F1084318
:1009B000E062F0BD816841F008018160704721B1BB
:1009C000826842F4A002826003E0826822F4A002FE
:1009D00082607047816841F004018160704700BF08
:1009E000FEE7000008B50121042001F0D3FB102030
:1009F0008DF803002020ADF8000003208DF80200E0
:100A00006946044800F05EFA2021024800F037FBF6
:100A100008BD00000008014010B50020034908701F
:100A20002021034800F02BFB10BD00002E00002009
:100A30000008014010B50120034908702021034837
:100A400000F01FFB10BD00002E0000200008014038
:100A500038B504464CB10820ADF8000003208DF8ED
:100A6000020010208DF8030005E00820ADF800001A
:100A700004208DF803006946014800F023FA38BDD0
:100A8000000C014070B5002400253CE00020FFF779
:100A9000DFFF07E01E480078401C1D490870012058
:100AA00000F0D5F808211B4800F0E0FA18B9184802
:100AB00000786428EEDB0020154908706006040EFB
:100AC000282000F0C4F80821124800F0CFFA0128CD
:100AD00001D144F0010407E00D480078401C0C49A6
:100AE0000870012000F0B3F808210A4800F0BEFAAF
:100AF000012803D1064800786428EDDB0020044972
:100B00000870681CC5B2082DC0DB204670BD00000F
:100B10002C000020000C01407CB505460E4600204C
:100B20000090019000F064F800F02EF8002405E039
:100B3000FFF7A8FF0DF80400601CC4B2052CF7DB1A
:100B4000012000F078F89DF800009DF8011008449D
:100B50009DF8021008449DF8031008449DF8041005
:100B6000884206D19DF8000028709DF80200307080
:100B700008E0002004E000210DF80010411CC8B27C
:100B80000528F8DB7CBD000010B50020FFF760FFF2
:100B900007E015480078401C13490870012000F058
:100BA00056F80821114800F061FA18B90E4800788B
:100BB0006428EEDB00200C49087007E00A48007842
:100BC000401C09490870012000F041F8082107483D
:100BD00000F04CFA012803D1034800786428EDDBCB
:100BE00000200149087010BD2C000020000C0140BD
:100BF00010B50120FFF72CFF0821074800F03FFA4D
:100C0000122000F018F80821034800F03AFA2820D2
:100C100000F01DF810BD0000000C014010B50121CE
:100C2000084601F0B7FA0121014800F0D7F910BDDC
:100C300000023000704700B5034603E04FF47A70BD
:100C400000F005F8181EA3F10103F7D100BD00EB79
:100C5000C001C9004FF0E0225161002191610521DE
:100C6000116100BF4FF0E021096901F480310029D2
:100C7000F8D004214FF0E022116170470149C860AB
:100C8000704700000020024030B5044604254FF4B0
:100C9000302000F09AF80546042D17D10C48006961
:100CA00040F002000A49086108464461006940F0CA
:100CB000400008614FF4302000F087F805460448F2
:100CC000006941F6FD71084001490861284630BDC0
:100CD0000020024004200B49C96801F0010109B15C
:100CE00001200EE00749C96801F0040109B10220A2
:100CF00007E00449C96801F0100109B1032000E0D0
:100D000004207047002002400348006940F0800042
:100D100001490861704700000020024070B5044698
:100D20000D460426F00200F050F80646042E11D1BC
:100D30000948006940F00100074908612580F00278
:100D400000F043F806460448006941F6FE71084089
:100D500001490861304670BD002002400146088804
:100D600070470000024803494860034848607047E4
:100D70002301674500200240AB89EFCD2DE9F0410A
:100D800004460F4615461E46DDF81880FFF7EAFFB9
:100D90003520FFF773FF2046FFF776FF39462046E0
:100DA000FFF7BCFF2946A01CFFF7B8FF3146201D06
:100DB000FFF7B4FF4146A01DFFF7B0FF3520FFF756
:100DC0005DFFFFF7A1FFBDE8F08100B502460423F7
:100DD000FFF780FF034603E0FFF77CFF0346521E48
:100DE000012B01D1002AF7D102B90523184600BD15
:100DF00010B500F02BF800F001F810BD0EB5012180
:100E0000022001F0B7F940F2E730ADF804004720C6
:100E1000ADF800000020ADF80600ADF802008DF836
:100E200008006946084801F037FC0121064801F036
:100E300007FC01221146044801F025FC012102486B
:100E400001F004FC0EBD00000004004008B51D20A8
:100E50008DF8000000208DF8010003208DF80200BD
:100E600001208DF80300684600F00CFF08BD10B5A6
:100E700007210120FFF700FD10BD000008B501218A
:100E8000042001F087F910208DF803000120ADF84F
:100E9000000003208DF802006946094800F012F8AE
:100EA0000121074800F0EDF800208DF80300022032
:100EB000ADF800006946024800F004F808BD0000E3
:100EC000000801402DE9F0410246002500260020DF
:100ED00000230024002791F803C00CF00F0591F8BF
:100EE00003C00CF0100CBCF1000F03D091F802C04D
:100EF0004CEA050591F800C0BCF1000F31D0146830
:100F000000202BE04FF0010C0CFA00F3B1F800C008
:100F10000CEA03069E4220D183004FF00F0C0CFA1E
:100F200003F7BC4305FA03FC4CEA040491F803C040
:100F3000BCF1280F06D14FF0010C0CFA00FCC2F8EE
:100F400014C00AE091F803C0BCF1480F05D14FF07E
:100F5000010C0CFA00FCC2F810C0401C0828D1D3C8
:100F60001460B1F800C0BCF1FF0F34DD54680020FC
:100F70002EE000F1080C4FF0010808FA0CF3B1F86C
:100F800000C00CEA03069E4221D183004FF00F0CF3
:100F90000CFA03F7BC4305FA03FC4CEA040491F88D
:100FA00003C0BCF1280F05D100F1080C08FA0CF8B9
:100FB000C2F8148091F803C0BCF1480F07D100F1CA
:100FC000080C4FF0010808FA0CF8C2F81080401C19
:100FD0000828CED35460BDE8F0810000F0B50A4681
:100FE000002300240021002500F00046B6F1004F48
:100FF00002D11D4EF16901E01B4E7168C0F303453B
:1010000083B200F44016B6F5401F08D121F070619C
:10101000154E766826F07066134F7E6012E000F47D
:101020008016B6F5801F06D1032606FA05F4A14303
:1010300041F0706106E0460D360103FA06F6B14351
:1010400041F0706122B1460D360103FA06F63143D4
:1010500000F00046B6F1004F02D1034EF16101E00D
:10106000014E7160F0BD000000000140024600200A
:1010700093680B400BB1012000E0002070474161F4
:101080007047016170470AB1016100E0416170473A
:101090002DE9FE4F4FF0000A01212648FFF7F1FF2E
:1010A0004FF48C70FFF7D3FDFFF7E1FE1FFA80FBD2
:1010B0001320FFF7CCFD01211E48FFF7E0FF42F2AD
:1010C000D050FFF7C4FD584604F0FAFD06461A4911
:1010D00004F00AFE05464FF08B4104F00FFD044674
:1010E0004FF0804104F000FE0290029804F0DAFC18
:1010F0008046124A124B04F0EDFA124A124BCDE927
:10110000000104F0E5FB06460022104B04F0E2FA71
:10111000044604F0AFFA8246BAF1000F01DA4FF04C
:10112000000ABAF5FA7F01DD4FF4FA7A1FFA8AF065
:10113000BDE8FE8F0008014033335340C3F5285CFF
:101140008FC2C53F9A9999999999B93F00408F40AC
:1011500070B50024002508E0FFF79AFF204484B210
:101160000520FFF768FD681CC5B20E2DF4DB0E20CC
:1011700094FBF0F084B2204670BD00BFFEE7000093
:101180004CF6CC4001490860704700000030004038
:1011900010B57D2001F082F828B111A0FFF744F8C6
:1011A00001F008F802E012A0FFF73EF8012001F07C
:1011B00093F800BF612001F071F80028FAD045F2E1
:1011C000555000F033F8042000F024F840F6354084
:1011D00000F026F800F016F8FFF7D2FF10BD00006F
:1011E0004957444720525354202E2E2E0D0A0000FA
:1011F0004E6F726D616C20525354202E2E2E0D0AAC
:10120000000000004AF6AA2001490860704700006B
:101210000030004001494860704700000030004045
:1012200001498860704700000030004001490860B3
:10123000704700000030004008B50121082000F090
:10124000A9FF48208DF803004FF47070ADF800003E
:1012500003208DF8020069460148FFF733FE08BD00
:10126000000C014010B540219F48FFF7FFFE78B108
:1012700000209E4908709E4908809E4800780028FA
:1012800040D000209B4908700B209B49087039E032
:101290009648007880B996480088401C9449088098
:1012A000084600880A282DDD002008800120924988
:1012B00008708E49087025E08D480088B0F5FA7FE7
:1012C00005DA8B480088401C894908801AE0884864
:1012D0000088401C8649088088480088401C87494F
:1012E000088008460088192804DD002008800120B5
:1012F000814908707E480088B0F5FA6F02DD012050
:101300007C49087080217848FFF7B0FE78B1002052
:101310007B4908707B4908807B480078002841D0D1
:101320000020794908701620734908703AE0744823
:10133000007888B973480088401C724908800846C4
:1013400000880A282EDD0020088002206A490870E3
:1013500001206B49087025E06A480088B0F5FA7FE3
:1013600005DA68480088401C664908801AE065482C
:101370000088401C6349088064480088401C634919
:10138000088008460088192804DD00200880022013
:10139000594908705B480088B0F5FA6F02DD0120FA
:1013A000594908704FF480714F48FFF75FFE70B1E4
:1013B000002057490870574908805748007828B3DB
:1013C00000205549087021204B4908703AE05048E8
:1013D000007888B94F480088401C4E49088008466C
:1013E00000880A282EDD002008800320424908706A
:1013F00001204749087025E046480088B0F5FA7F8B
:1014000005DA44480088401C424908801AE04148F7
:101410000088401C3F49088040480088401C3F49E4
:10142000088008460088192804DD00200880032071
:101430003149087037480088B0F5FA6F02DD0120A5
:10144000354908704FF400712748FFF70FFE70B15F
:10145000002033490870334908803348007828B3A6
:101460000020314908702C20234908703AE02C48AC
:10147000007888B92B480088401C2A490880084613
:1014800000880A282EDD0020088004201A490870F0
:1014900001202349087025E022480088B0F5FA7F32
:1014A00005DA20480088401C1E4908801AE01D48C3
:1014B0000088401C1B4908801C480088401C1B49B0
:1014C000088008460088192804DD002008800420D0
:1014D0000949087013480088B0F5FA6F02DD012051
:1014E0001149087010BD0000000C014034000020BC
:1014F000380000203000002048000020400000207C
:10150000350000203A000020310000204200002079
:10151000360000203C000020320000204400002063
:10152000370000203E00002033000020460000204D
:101530002DE9F04106460C461746002E28D024B16E
:10154000012C0DD0022C21D115E0012505E03946F2
:10155000284600F0D1F8681CC5B2092DF7DB16E06B
:10156000012505E03946284600F060F8681CC5B240
:10157000052DF7DB0BE0012505E03946284600F094
:1015800077F9681CC5B2052DF7DB00E000BF28E045
:1015900024B1012C0DD0022C21D115E0082505E045
:1015A0003946284600F0A8F8681EC5B2002DF7DCC1
:1015B00016E0042505E03946284600F037F8681E95
:1015C000C5B2002DF7DC0BE0042505E039462846BE
:1015D00000F04EF9681EC5B2002DF7DC00E000BF38
:1015E00000BFBDE8F08100002DE9F04107468846C4
:1015F00014461D460C48007888B901200A49087035
:10160000002606E02A4641463846FFF791FF701C47
:1016100086B2A0012D2190FBF1F0B042F2DC002057
:1016200001490870BDE8F0812D00002070B5044626
:101630000D46052C59D2DFE804F00304192E4300AF
:1016400053E04FF400412B48FFF719FD4FF4805150
:101650002848FFF716FD4FF400612648FFF711FDFB
:101660004FF480712348FFF70CFD3EE04FF400413A
:101670002048FFF706FD4FF480511E48FFF7FFFC9E
:101680004FF400611B48FFF7FCFC4FF480711948D0
:10169000FFF7F7FC29E04FF400411648FFF7F1FC93
:1016A0004FF480511348FFF7ECFC4FF400611148F0
:1016B000FFF7E5FC4FF480710E48FFF7E2FC14E001
:1016C0004FF400410B48FFF7DCFC4FF48051094810
:1016D000FFF7D7FC4FF400610648FFF7D2FC4FF448
:1016E00080710448FFF7CBFC00BF00BF2846FFF71E
:1016F000A2FA70BD0008014070B504460D46092CE1
:1017000006D2DFE804F005061B30455A6F849900C5
:10171000A7E04FF400415548FFF7B1FC4FF480516A
:101720005248FFF7AEFC4FF400615048FFF7A9FCA8
:101730004FF480714D48FFF7A4FC92E04FF4004154
:101740004A48FFF79CFC4FF480514848FFF797FC4C
:101750004FF400614548FFF794FC4FF48071434813
:10176000FFF78FFC7DE04FF400414048FFF789FC14
:101770004FF480513D48FFF782FC4FF400613B4835
:10178000FFF77FFC4FF480713848FFF77AFC68E080
:101790004FF400413548FFF774FC4FF48051334853
:1017A000FFF76DFC4FF400613048FFF768FC4FF421
:1017B00080712E48FFF765FC53E04FF400412B4841
:1017C000FFF75FFC4FF480512848FFF75AFC4FF4B5
:1017D00000612648FFF753FC4FF480712348FFF760
:1017E00050FC3EE04FF400412048FFF74AFC4FF424
:1017F00080511E48FFF745FC4FF400611B48FFF77E
:101800003EFC4FF480711948FFF739FC29E04FF492
:1018100000411648FFF735FC4FF480511348FFF79D
:1018200030FC4FF400611148FFF72BFC4FF480713E
:101830000E48FFF724FC14E04FF400410B48FFF77B
:101840001EFC4FF480510948FFF71BFC4FF4006168
:101850000648FFF716FC4FF480710448FFF70FFCB1
:1018600000BF00BF2846FFF7E6F970BD0008014041
:1018700070B504460D46052C59D2DFE804F0030488
:10188000192E430053E04FF400412B48FFF7F7FBBC
:101890004FF480512848FFF7F4FB4FF400612648CD
:1018A000FFF7EFFB4FF480712348FFF7E8FB3EE0C2
:1018B0004FF400412048FFF7E2FB4FF480511E48EF
:1018C000FFF7DDFB4FF400611B48FFF7DAFB4FF435
:1018D00080711948FFF7D5FB29E04FF40041164805
:1018E000FFF7CFFB4FF480511348FFF7C8FB4FF4CD
:1018F00000611148FFF7C3FB4FF480710E48FFF7FA
:10190000C0FB14E04FF400410B48FFF7BAFB4FF463
:1019100080510948FFF7B5FB4FF400610648FFF717
:10192000AEFB4FF480710448FFF7A9FB00BF00BF76
:101930002846FFF780F970BD0008014010B54FF44C
:1019400019410248FFF79BFB10BD00000008014051
:1019500008B50121084600F01DFC01210D48FFF7E4
:101960003DFB0121042000F015FC4FF41940ADF8B7
:10197000000003208DF8020010208DF80300694656
:101980000548FFF79FFA4FF419410348FFF777FB2B
:1019900008BD0000000230000008014010B505211C
:1019A0000420FEF769FF10BD70B50024002508E093
:1019B000FFF7F4FF204484B20520FFF73CF9681CD0
:1019C000C5B20A2DF4DB0A2094FBF0F084B2204665
:1019D00070BD000008B50121042000F0DBFB0020F1
:1019E0008DF803001020ADF8000003208DF80200F0
:1019F00069460248FFF766FA08BD0000000801408A
:101A000070B500240025FFF7CFFF04460520FFF73F
:101A100012F9204604F054F90646034904F064F92B
:101A20000546284670BD00003333533A00BFFEE739
:101A300010B500220121084600F002FB0522022118
:101A4000012000F0FDFA3A220521012000F0BEFA43
:101A500043220821012000F0B9FA01220521104695
:101A600000F0EEFA05220621012000F0E9FA3A2200
:101A70000D21012000F0AAFA25221021012000F0FA
:101A8000A5FA02220121104600F0DAFA032202210F
:101A9000084600F0D5FA3A220521022000F096FA15
:101AA0003AA20C21022000F023FB39A201210320DD
:101AB00000F01EFB38A20C21032000F019FB0622C7
:101AC0000121042000F0BCFA07220221042000F0CA
:101AD000B7FA3A220521042000F078FA304931485B
:101AE000FFF71AF802232E4802780621012000F0A1
:101AF000DDFA02232B4802780E21012000F0D6FAED
:101B000000F0A0FC044604F0BBF82749088003233A
:101B1000084602880821022000F0C8FAFFF718FBE7
:101B2000224908800323084602880821184600F04D
:101B3000BDFA1F480078A0B90A220421084600F027
:101B40007FFA0B220521042000F07AFA06221146C2
:101B5000042000F075FA07221146042000F070FA04
:101B600013E008220421084600F06AFA0922052140
:101B7000042000F065FA06221146042000F060FA05
:101B800007221146042000F05BFA10BD70706D0052
:101B9000504D322E353A000075672F6D330000002E
:101BA00027000020260000202A0000202800002016
:101BB0001500002010B500220221012000F040FA9B
:101BC00005220321012000F03BFA0E22042101200E
:101BD00000F036FA0F220521012000F031FA3A22F6
:101BE0000B21012000F0F2F901220221084600F049
:101BF00027FA05220321022000F022FA0E220421F6
:101C0000022000F01DFA0F220521022000F018FA30
:101C10003A220B21022000F0D9F9022211460320BA
:101C200000F00EFA03221146104600F009FA0E22C7
:101C30000421032000F004FA0F220521032000F004
:101C4000FFF93A220B21032000F0C0F90AA2032178
:101C5000042000F04DFA0E220421084600F0F0F9AD
:101C60000F220521042000F0EBF93A220B21042079
:101C700000F0ACF910BD0000504D323500000000FE
:101C80007047000070B5002100230F22C47804B310
:101C9000154C246804F4E064C4F5E064210AC1F141
:101CA0000403CA40447804FA03F1847814402143C1
:101CB00009010E4C0678A155047804F01F05012493
:101CC000AC4005786D11AD0005F1E025C5F8004187
:101CD00009E0047804F01F050124AC40044D0678A7
:101CE000761145F8264070BD0CED00E000E400E000
:101CF00080E100E002490143024A116070470000A0
:101D00000000FA050CED00E070B500240EE00021A3
:101D1000204600F04AF9002504E0002000F00CFA0B
:101D2000681CC5B2802DF8DB601CC4B2082CEEDB49
:101D300070BD000008B50121082000F02BFA142026
:101D40008DF8030003208DF802008002ADF800003A
:101D500069460748FFF7B6F80122D1020448FFF7A9
:101D600092F9012291020248FFF78DF908BD0000A7
:101D7000000C014070B50546002415E0802020418C
:101D800000EA05024FF480610E48FFF77CF901225A
:101D9000D1020C48FFF777F900224FF4006109489F
:101DA000FFF771F9601CC4B2082CE7DB0122D102F5
:101DB0000448FFF768F900224FF400610148FFF77B
:101DC00062F970BD000C014010B5012291020A4871
:101DD000FFF759F90122D1020748FFF754F9002211
:101DE0004FF480610448FFF74EF900224FF4006180
:101DF0000148FFF748F910BD000C014010B5002262
:101E00004FF480610648FFF73EF90122D1020448F1
:101E1000FFF739F9012291020148FFF734F910BDAB
:101E2000000C014070B5002406E0002500E06D1CA8
:101E3000B5F57A7FFBD3641CB4F57A7FF5D3FFF751
:101E400079FFAE2000F068F9D52000F065F9802018
:101E500000F062F9A82000F05FF93F2000F05CF983
:101E6000D32000F059F9002000F056F9402000F08E
:101E700053F9A12000F050F9C82000F04DF9DA2004
:101E800000F04AF9122000F047F9812000F044F9EF
:101E9000CF2000F041F9D92000F03EF9F12000F008
:101EA0003BF9DB2000F038F9302000F035F9A420B0
:101EB00000F032F9A62000F02FF98D2000F02CF967
:101EC000142000F029F9AF2000F026F9FFF71CFFDD
:101ED00070BD10B50446012C06D0022C19D0032C7D
:101EE0002CD0042C54D13EE020220121022000F00D
:101EF0006DF820220121032000F068F82022012142
:101F0000042000F063F83E220121084600F05EF84C
:101F10003FE020220121084600F058F8202201214C
:101F2000032000F053F820220121042000F04EF895
:101F30003E220121022000F049F82AE0202201215E
:101F4000084600F043F820220121022000F03EF86C
:101F500020220121042000F039F83E220121032033
:101F600000F034F815E020220121084600F02EF898
:101F700020220121022000F029F820220121032043
:101F800000F024F83E220121042000F01FF800E0B8
:101F900000BF00BF10BD10B50246012000E0504355
:101FA0000B1EA1F10101FAD110BD70B505460C461A
:101FB00045F0B00000F0B0F8102141EA141000F034
:101FC000ABF804F00F0000F0A7F870BD2DE9F04168
:101FD00005460E461746721ED206110E6A1E52069E
:101FE000100EFFF7E2FF002409E0A7F12001134AD9
:101FF00002EB0111085D00F09FF8601CC4B2082CD0
:10200000F3DB721ED206110E6A1E012303EB42029D
:10201000D0B2FFF7CAFF00240BE0A7F12001074A66
:1020200002EB011204F10801505C00F085F8601C1D
:10203000C4B2082CF1DBBDE8F0810000805E00082E
:102040002DE9F04105460E461746721E1207110E85
:102050006A1E5206100EFFF7A8FF002407E012497F
:1020600001EB4711085D00F067F8601CC4B2102C4A
:10207000F5DB721E1207110E6A1E012303EB4202EA
:10208000D0B2FFF792FF002409E0074901EB4712A5
:1020900004F11001505C00F04FF8601CC4B2102C29
:1020A000F3DBBDE8F0810000706400082DE9F04723
:1020B00080460E4617461D46002415E0281B411E8B
:1020C0000A20FFF768FFB7FBF0F00A21B0FBF1F23E
:1020D00001FB120000F130093019C1B24A464046F6
:1020E000FFF774FF601CC4B2AC42E7DBBDE8F087C9
:1020F0002DE9F04107460E461546002407E02A5D0B
:102100003019C1B23846FFF761FF601CC4B2285DC8
:102110000028F4D1BDE8F08110B50446FFF754FE65
:102120007820FFF727FE0020FFF724FE2046FFF768
:1021300021FEFFF763FE10BD10B50446FFF744FE15
:102140007820FFF717FE4020FFF714FE2046FFF728
:1021500011FEFFF753FE10BD70470000014600203E
:10216000034A506820F44040084350607047000024
:102170000010024029B1064AD2690243044BDA61D9
:1021800004E0034AD2698243014BDA6170470000E0
:102190000010024029B1064A92690243044B9A6139
:1021A00004E0034A92698243014B9A617047000040
:1021B000001002400348406A40F0807001494862C4
:1021C000704700000010024030B5002100220024BA
:1021D00000232D4D6D6805F00C0121B1042905D0B7
:1021E000082923D105E0294D056022E0274D05602F
:1021F0001FE0254D6D6805F47012234D6D6805F4E0
:102200008034022505EB92421CB9214D55430560EF
:102210000BE01D4D6D6805F400351DB11C4D554397
:10222000056002E0194D5543056002E0174D056059
:1022300000BF00BF144D6D6805F0F0010909154D90
:102240006B5C0568DD4045600F4D6D6805F4E0612D
:10225000090A104D6B5C4568DD4085600A4D6D686C
:1022600005F46051C90A0B4D6B5C4568DD40C560E3
:10227000054D6D6805F44041890B074D6B5CC568E1
:10228000B5FBF3F5056130BD0010024000127A0085
:1022900000093D00000000201000002010B501469C
:1022A0000022002300204A11012A02D1094C236890
:1022B00006E0022A02D1074C236A01E0054C636A5A
:1022C00001F01F02012494401C400CB1012000E0E9
:1022D000002010BD00100240014908607047000056
:1022E0008004424208B501210820FFF753FF102067
:1022F0008DF803004FF44050ADF8000003208DF836
:10230000020069460148FEF7DDFD08BD000C0140F2
:1023100010B50446012C04D101030548FEF7AFFEB9
:1023200005E0022C03D121030148FEF7A8FE10BDF1
:10233000000C014010B50446012C04D101030548EE
:10234000FEF79FFE05E0022C03D121030148FEF7B2
:1023500098FE10BD000C0140704710B500F002F867
:1023600010BD00000CB500200190009033480068BB
:1023700040F480303149086000BF3048006800F404
:10238000003000900198401C0190009818B9019805
:10239000B0F5A06FF1D12948006800F4003010B109
:1023A0000120009001E0002000900098012843D116
:1023B0002348006840F01000214908600846006882
:1023C00020F0030008600846006840F00200086042
:1023D0001A484068194948600846406848600846FD
:1023E000406840F4806048600846406820F47C10F3
:1023F00048600846406840F4E810486008460068B5
:1024000040F08070086000BF0C48006800F0007069
:102410000028F9D00948406820F0030007494860C7
:102420000846406840F00200486000BF034840682A
:1024300000F00C000828F9D10CBD0000001002408B
:102440000020024070B5FFF7DBFA0546024903F0B1
:102450004BFC0446204670BD0000C8427047000097
:1024600010B51348006840F00100114908600846A3
:102470004068104908400E494860084600680E4907
:1024800008400B4908600846006820F48020086076
:102490000846406820F4FE0048604FF41F00886042
:1024A000FFF75BFF4FF000600449086010BD0000BB
:1024B000001002400000FFF8FFFFF6FE08ED00E00C
:1024C00010B50121880700F0CDF800287DD0FEF777
:1024D000C9FE45480078012809D144480078012800
:1024E00005D100204049087002204049087040484A
:1024F000007800285AD03F4800783F490978884240
:1025000005DB3E4800883E490988884203DA0120FD
:10251000FFF710FF02E00120FFF7FAFE39480078CC
:1025200039490978884203DD0220FFF703FF02E002
:102530000220FFF7EDFE35480088354909888842BA
:1025400008DA3448007828B9012033490870314945
:1025500008700EE02D4800882D490988884208DD62
:102560002C480078012804D12C4908700020294902
:1025700008702048007820490978884211DB2148FA
:1025800000782149097888420BDC1C4800881C49E6
:102590000988884205DB1D4800881D490988884252
:1025A00002DAFEF747FA01E0FEF736FA0E48007845
:1025B0002C2813D10D48007801280FD100200A499A
:1025C0000870022002F06CFA00E00BE0FEF732FA2D
:1025D0004FF49670FEF72FFBFEF71EFA01218807D5
:1025E00000F031F810BD0000480000201400002069
:1025F0001500002018000020270000201A000020ED
:102600002A00002019000020260000201C000020C5
:102610002800002052000020160000201700002093
:1026200010B50121054800F01DF828B1012103482B
:1026300000F009F801F054FE10BD00000004004055
:10264000CA4302827047CA430282704721B102889E
:1026500042F00102028004E002884FF6FE731A4045
:102660000280704730B50246002000230024158AFE
:1026700005EA0103958905EA010413B10CB10120B3
:1026800000E0002030BD1AB183890B43838102E052
:1026900083898B4383817047002202881D4B9842B7
:1026A0000ED01D4B98420BD0B0F1804F08D01B4B81
:1026B000984205D01A4B984202D01A4B984204D146
:1026C0004FF68F731A404B881A43174B984207D026
:1026D000164B984204D04FF6FF431A40CB881A435A
:1026E00002808B8883850B8803850A4B98420BD028
:1026F000094B984208D00E4B984205D00D4B98429A
:1027000002D00D4B984201D10B7A038601238382BC
:1027100070470000002C01400034014000040040DC
:1027200000080040000C0040001000400014004071
:102730000040014000440140004801407FB504468C
:102740000D4601210846FFF715FD0020ADF80A00EF
:10275000ADF80600ADF80850ADF804408DF80C0057
:1027600001A94FF08040FFF797FF01221146900723
:10277000FFF789FF1C208DF8000001208DF8030071
:102780008DF8010002208DF802006846FFF77AFA02
:1027900001218807FFF75AFF7FBD000010B540F206
:1027A0002551044800F035F818B1024800F0ECF863
:1027B000C4B210BD0038014008B540F225510748A9
:1027C00000F027F840B1054800F0DEF8C0B20090F4
:1027D0000121684601F0CEFC08BD00000044004025
:1027E00021B1828942F40052828104E082894DF64F
:1027F000FF731A408281704702460020B1F5007FC6
:1028000000D100BF13880B400BB1012000E0002075
:10281000704770B50246002400230025002040F6D2
:102820006A16B14200D100BFC1F3421501F01F0387
:10283000012606FA03F3012D02D19689334006E002
:10284000022D02D1168A334001E0968A33400C12E1
:10285000012606FA04F41688344013B10CB10120A5
:1028600000E0002070BDF0B50346002400260025DE
:10287000002040F66A17B94200D100BF1846C1F3E4
:10288000421401F01F06012707FA06F5012C01D1B9
:102890000C3004E0022C01D1103000E014301AB1E9
:1028A00007682F43076002E00768AF430760F0BD89
:1028B0002DE9F04786B005460E460024A24600BF2B
:1028C000A1460027B08900B100BF2F462C8A4CF6E4
:1028D000FF700440F08804432C82AC894EF6F3105C
:1028E0000440B08831890843718908430443AC81AE
:1028F000AC8A4FF6FF400440B0890443AC8201A883
:10290000FFF762FC1F48874202D1DDF810A001E00A
:10291000DDF80CA0A88900F4004040B10AEBCA0021
:1029200000EB0A1031684900B0FBF1F807E00AEB50
:10293000CA0000EB0A1031688900B0FBF1F864208E
:10294000B8FBF0F004012009642101FB1089A8897B
:1029500000F4004040B1322000EBC900B0FBF1F0C0
:1029600000F00700044308E0322000EB0910642166
:10297000B0FBF1F000F00F0004432C8106B0BDE87D
:10298000F08700000038014001468888C0F3080045
:102990007047C1F308028280704700BFFEE73038FD
:1029A0000A2801D2012070470020704700BF7047FD
:1029B000024600210020137803F0010303B1491CF3
:1029C0001378C3F3400303B1491C1378C3F38003A6
:1029D00003B1491C1378C3F3C00303B1491C09B9FF
:1029E000002007E001F007030BB9C80802E001234B
:1029F00003EBD100704701B581B00020009069461B
:102A000001AA5078087010784870BDF800000CBD1D
:102A10000146080601F47F4240EA022001F47F02E9
:102A200040EA122040EA11607047000000BF054AEA
:102A3000128802F04002002AF9D0C2B2014B1B1DDD
:102A40001A80704700380140024612B102F00700B8
:102A500028B9082901D8002070470120FCE702F0BE
:102A60000700C0F10800884201D30020F4E70120EC
:102A7000F2E730B502460B460021002400250AB9D2
:102A8000481E30BD002108E0545C581A401E155CF9
:102A90005554581A401E1454491CB1EB530FF3D32C
:102AA0000020EEE72DE9F04104460D460027002600
:102AB00004B135B964A0FDF7B7FB4FF0FF30BDE8B6
:102AC000F08100F067FB06462878217888420CD018
:102AD00067A0FDF7A9FB6B4890F8B30320F0010055
:102AE000401C684981F8B3030127687861788842FF
:102AF0000CD065A0FDF798FB624890F8B30320F076
:102B00000200801C5F4981F8B3030127A878A178EF
:102B100088420CD061A0FDF787FB5A4890F8B303B8
:102B200020F00400001D574981F8B3030127E8781D
:102B3000E17888420CD060A0FDF776FB514890F810
:102B4000B30320F0080008304E4981F8B303012791
:102B50002879217988420CD05DA0FDF765FB4948B2
:102B600090F8B30320F010001030464981F8B30309
:102B70000127D5F80500D4F80510884213D05A482B
:102B80000068301A41F2707188420CD357A0FDF7EB
:102B90004BFB3C4890F8B30320F02000203039492B
:102BA00081F8B3030127D5F80900D4F80910884249
:102BB00013D04D480068301A41F2707188420CD32E
:102BC00051A0FDF731FB2F4890F8B30320F04000EF
:102BD00040302C4981F8B3030127D5F80D00D4F813
:102BE0000D10884213D040480068301A41F27071CD
:102BF00088420CD34AA0FDF717FB224890F8B30394
:102C000020F0800080301F4981F8B3030127D5F8F8
:102C10001100D4F8111088420ED033480068301AE1
:102C200041F27071884207D342A0FDF7FDFA0121FD
:102C3000144880F8B4130127012F03D100F0AAFA39
:102C40002949086038463AE767697A436865636BE3
:102C50005265706F7274204572726F72202C204919
:102C60006C6C6567616C20506172616D0A000000D8
:102C700076616C75654D6F64656C204368616E6745
:102C800065640A006C00002076616C756546616EB3
:102C9000204368616E6765640A00000076616C75A8
:102CA0006548756D69646966696572204368616E1F
:102CB0006765640A0000000076616C756557696E8F
:102CC000646F77204368616E6765640A00000000E6
:102CD00076616C756542757A7A6572204368616EBB
:102CE0006765640A000000005400002076616C757E
:102CF0006554656D706572617475726520436861B5
:102D00006E6765640A00000076616C756548756DD4
:102D10006964697479204368616E6765640A0000BC
:102D200076616C7565536D6F67204368616E67658A
:102D3000640A000076616C7565504D323520436839
:102D4000616E6765640A00002DE9FE4305460C4686
:102D500016464FF000080027B94600200090019069
:102D600002902888ADF800000DB104B136B93EA03C
:102D7000FDF75AFA4FF0FF30BDE8FE8302216846A6
:102D8000FFF777FEB0F1FF3F05D142A0FDF74CFA07
:102D90004FF0FF30F0E76846FFF70AFE804608F183
:102DA000020081449DF8000000F0010090B1112163
:102DB0002278601C81542078401C20704346AA1C55
:102DC0000121384601F0D2FA08B1012000E00020CC
:102DD00030707F1C9DF80000C0F3400090B11221BC
:102DE0002278601C81542078401C20704346AA1C25
:102DF0000121384601F0BAFA08B1012000E00020B4
:102E000070707F1C9DF80000C0F3800090B113210A
:102E10002278601C81542078401C20704346AA1CF4
:102E20000121384601F0A2FA08B1012000E000209B
:102E3000B0707F1C9DF80000C0F3C00090B1142159
:102E40002278601C81542078401C20704346AA1CC4
:102E50000121384601F08AFA08B1012000E0002083
:102E6000F0707F1C002087E767697A4461746150C5
:102E70006F696E74324576656E74204572726F723A
:102E8000202C20496C6C6567616C20506172616D0B
:102E90000A00000067697A427974654F726465724E
:102EA00045786368616E6765204572726F720A00CB
:102EB0002DE9F04786B005460F4690464FF00009D1
:102EC0000026002400200190029003906B48B0F887
:102ED000B303ADF80400022101A8FFF7CAFDA41C4A
:102EE00005B13FB966A0FDF79FF94FF0FF3006B07E
:102EF000BDE8F087614890F8B30300F0010038B1F5
:102F00002B7801A802190121304601F0F1F9761C55
:102F10005A4890F8B303C0F3400038B16B7801A869
:102F200002190121304601F0E3F9761C534890F86C
:102F3000B303C0F3800038B1AB7801A802190121B6
:102F4000304601F0D5F9761C4C4890F8B303C0F335
:102F5000C00038B1EB7801A802190121304601F018
:102F6000C7F9761C454890F8B303C0F3001038B198
:102F70002B7901A802190121304601F0B9F9761C1C
:102F800016B94FF0000908E006F0070010B94FEA43
:102F9000D60902E0012000EBD609B9F1010F04D9EE
:102FA00001A908194946FFF764FD4C44334890F8DD
:102FB000B303C0F3401068B1D5F80520002101200B
:102FC00001F036FAC0B28DF8110001A89DF8111079
:102FD0000155641C294890F8B303C0F3801068B110
:102FE000D5F809200021012001F022FAC0B28DF8A5
:102FF000120001A89DF812100155641C1F4890F89A
:10300000B303C00990B1D5F80D200021012001F0D3
:103010000FFA1FFA80FA5046FFF7EDFCADF81300E7
:1030200001A82044BDF813100180A41C134890F897
:10303000B40300F0010090B1D5F811200021012067
:1030400001F0F6F91FFA80FA5046FFF7D4FCADF80C
:10305000150001A82044BDF815100180A41C0748E4
:103060000021A0F8B313C8F8004001A93846D8F8E9
:103070000020FDF711FA002039E700006C00002065
:1030800067697A44617461506F696E747332526516
:10309000706F727444617461204572726F72202C7B
:1030A00020496C6C6567616C20506172616D0A002B
:1030B00070B5054600F06EF80446002625492846FE
:1030C000FFF7F0FC012817D123A0FDF7ADF8214A46
:1030D000193AA2F10B012846FFF7EAFE38B9244855
:1030E00000F2B531D0F8C023142001F07DF815228C
:1030F00029461848FDF7D0F91E48B4FBF0F100FB53
:10310000114018BB1C480068A0421FD01BA0FDF74F
:103110008BF8FF2202210F482638FDF734FA0D4ABA
:10312000193AA2F10B012846FFF7C2FE38B9104840
:1031300000F2B531D0F8C023142001F055F8152263
:1031400029460448FDF7A8F90B4804603046FDF70E
:1031500044F870BD450400206368616E6765642CA7
:10316000207265706F727420646174610A000000DF
:103170006C000020C027090058000020496E666FCF
:103180003A2036303053207265706F72742064615B
:1031900074610A0001480068704700006400002064
:1031A00010B5174890F83D02012827D1144890F82F
:1031B0003C0202281DDAFFF7EDFF1149D1F8571341
:1031C000401AC8281AD9FFF7E5FF04460C4890F8C2
:1031D0003C32D0F8572321460AA0FDF725F800F02D
:1031E0001DFF074890F83C02401C054981F83C024D
:1031F00004E040F21F110D48FDF7EFF910BD00008B
:103200006C0000205761726E696E673A67697A5088
:10321000726F746F636F6C526573656E6444617432
:10322000612025642025642025640A00A80200206E
:103230003EB50446002524B913A0FCF7F5FF681E2F
:103240003EBD20680090606801909DF80400401C1D
:10325000C0B28DF804000520FFF7CDFBADF80200E9
:103260000921684600F01AFF8DF808000921684618
:1032700002F0D0F80546002D03DA29460DA0FCF730
:10328000D3FF2846DCE700004552523A2067697AAE
:1032900050726F746F636F6C436F6D6D6F6E4163CF
:1032A0006B206461746120697320656D707479208E
:1032B0000A0000004552523A2075617274207772FC
:1032C000697465206572726F72202564200A00009F
:1032D000FEB504460E46002524B914A0FCF7A4FF51
:1032E000681EFEBD684600F0FFF912208DF804004C
:1032F00060798DF805000620FFF77DFBADF8020030
:103300008DF808600A21684600F0C8FE8DF80900B3
:103310000A21684602F07EF80546002D03DA2946A8
:103320000DA0FCF781FF2846DBE7000067697A50B3
:10333000726F746F636F6C4572726F72436D64204D
:103340004572726F72202C20496C6C6567616C202D
:10335000506172616D0A00004552523A20756172E7
:1033600074207772697465206572726F72202564AB
:10337000200A000030B59DB0044600252CB92BA0D2
:10338000FCF752FF681E1DB030BD684600F0ACF976
:1033900002208DF8040060798DF805002FA103C983
:1033A000CDE9020130A103C9CDE9040131A103C96E
:1033B000CDE9080132A103C9CDE906011C2233A1E0
:1033C0000AA8FDF7AEF81D2238A10DF15200FDF755
:1033D00063F80020CDF84A00CDF84E009DF851006A
:1033E0008DF851009DF8510040F002018DF8511008
:1033F0000020FFF700FBADF848006F20FFF7FBFA55
:10340000ADF802007321684600F048FE8DF87200A6
:103410007321684601F0FEFF0546002D03DA2946B8
:103420002AA0FCF701FF2846ADE7000067697A5043
:10343000726F746F636F6C4765744465766963651A
:10344000496E666F204572726F72202C20496C6C39
:103450006567616C20506172616D0A0030303030F8
:103460003030303400000000303030303030303216
:1034700000000000303330333030303000000000C6
:1034800030333031303130300000000037346630B6
:103490006163356139656262343037646238373070
:1034A00038646235613634610000000039393232E7
:1034B00035303565666130633435346638373136DA
:1034C0003364633362663031300000004552523A53
:1034D0002075617274207772697465206572726FED
:1034E00072202564200A00002DE9FE4F80460E461A
:1034F00017464FF0000B00200290814682460025BF
:1035000034460090B8F1000F01D006B137B956A08B
:10351000FCF78AFE4FF0FF30BDE8FE8F404601F019
:10352000BEFD1FFA80FABAF1000F02D14FF0FF3052
:10353000F2E74FF000096AE0012201A9404601F0DC
:10354000EBFD8346BBF1000F5FD053480078FF28A6
:103550001FD19DF80400FF281BD15048007848B9BE
:10356000FF202070607002204D49088001204B49E7
:10357000087041E04A48008804283DDD484800883A
:10358000A84239D0FF202070607002204449088092
:1035900032E041480078FF2803D19DF80400552807
:1035A0002AD03E480078012826D19DF804003C49E5
:1035B000098860543A480088401C39490880084608
:1035C0000088042818DD0094009C6088FFF713FA37
:1035D000001D85B2B5F58B7F01D8042D07DC0020D6
:1035E0002E4908702E4908802EA0FCF71DFE2C489D
:1035F0000088A84200D10CE09DF80400264908701C
:1036000038480078401C3749087009F10109D14554
:1036100092DB00BF22480088042822DD2048008871
:10362000A8421ED11E480188204600F037FD0290B6
:103630001B480088401E215C029881420AD13D80CF
:10364000002016490870164908802649087012495A
:10365000087061E700201149087011490880801E38
:103660005AE7012058E7000067697A50726F746F5B
:10367000636F6C4765744F6E655061636B65742052
:103680004572726F72202C20496C6C6567616C20EA
:10369000506172616D0A0000600000205C00002033
:1036A0005E0000204552523A74686520646174617E
:1036B000206C656E67746820697320746F6F206C6E
:1036C0006F6E67206F7220746F6F20736D616C6C0A
:1036D0002C2077696C6C206162616E646F6E200AC9
:1036E000000000006100002010B504462CB907A0BE
:1036F000FCF79AFD4FF0FF3010BD002020606060A5
:10370000FF20207060700020F6E700004552523A1A
:103710002067697A50726F746F636F6C486561647B
:10372000496E6974206865616420697320656D70F5
:103730007479200A000000002DE9F04FADF50D7DF1
:1037400006468B461746994600208C908246804656
:1037500000256C46BBF1000F07D131A0FCF764FDDA
:10376000681E0DF50D7DBDE8F08FB9F1010F06D192
:1037700096F8088008F10600384485B201E0781D0B
:1037800085B22B46424639462BA0FCF74DFDFF2063
:1037900004F8010B04F8010B281204F8010B04F8DB
:1037A000015B3079401C04F8010B707904F8010BBF
:1037B000002004F8010B04F8019B4FF0080AB9F14E
:1037C000010F0CD104F8018B0AF1010A0DEB0A007C
:1037D000424606F10901FCF75FFEC24444442FB1A2
:1037E0000DEB0A003A465946FCF756FE291D68467D
:1037F00000F054FC0146E81C0DF80010291D684635
:1038000001F008FE8C908C98002806DA14A08C99A0
:10381000FCF70AFD6FF00100A3E70020A1E700001C
:103820005B4552525D202064617461204973204ED3
:10383000756C6C200A0000006C656E203D202564CC
:10384000202C20734469644C656E203D2025642043
:103850002C646174615F6C656E203D2025640A00F4
:1038600075617274207772697465206572726F7207
:10387000202564200A0000002DE9F04780460C4610
:1038800017461D46089E94F800900CB105B136B954
:1038900037A0FCF7C9FC4FF0FF30BDE8F087B8F166
:1038A000000F63D116213E48FCF775FEB9F1050FF4
:1038B0003DD0B9F1110F03D0B9F1120F54D10FE07F
:1038C00038A0FCF7B1FC364A69323549601CFFF775
:1038D0003BFA01203C49087000250020306044E09C
:1038E0003AA0FCF7A1FC3848B4F80110A0F8B313D3
:1038F000022100F2B330FFF7BCF8294A6532A2F189
:103900000B0101F12400FFF7D3FA60B92E4800F251
:10391000B531D0F8C023681CFCF7BEFD1320287019
:103920000A20306002E04FF0FF30B6E71DE07A1E5B
:10393000611C2F48FCF7B0FD781E2349C1F8300206
:103940001021214890F85B2300F5577081541E48E0
:1039500090F85B03401C1C4981F85B03032008704E
:1039600000250020306000E000BF00BF002094E789
:1039700067697A50726F746F636F6C4973737565A2
:103980006450726F63657373204572726F72202C7E
:1039900020496C6C6567616C20506172616D0A0032
:1039A000C7030020414354494F4E5F454C4F4E479B
:1039B0004154455F434F4E54524F4C5F4445564926
:1039C0004345200A000000006C0000204143544998
:1039D0004F4E5F454C4F4E474154455F5245414421
:1039E0005F4445565F535441545553200A0000002C
:1039F0008401002070B5044625462CB90EA0FCF7C2
:103A000013FC4FF0FF3070BD412205F108010E4854
:103A1000FCF742FD0F210D4890F89D2300F29E30E7
:103A200081540A4890F89D03401C084981F89D0381
:103A3000052008700020E6E74E5450206973206589
:103A40006D707479200A0000680400206C0000206A
:103A500010B504462CB9D2A0FCF7E6FB4FF0FF30BE
:103A600010BD2089FEF7C7FF2081D9480078C0F338
:103A70008000217AC1F3800188425AD0207AC0F3B5
:103A8000800000282BD0207A00F0010080B10021B6
:103A9000D04890F8712300F272308154CD4890F8EC
:103AA0007103401CCB4981F87103CBA0FCF7BCFB30
:103AB000207AC0F3400000283BD00121C54890F88F
:103AC000712300F272308154C24890F87103401C97
:103AD000C04981F87103C8A0FCF7A6FB29E0207A51
:103AE00000F0010080B10021BA4890F8712300F283
:103AF00072308154B74890F87103401CB54981F881
:103B00007103B5A0FCF790FB207AC0F3400080B1B0
:103B10000221B04890F8712300F272308154AD4810
:103B200090F87103401CAB4981F87103B9A0FCF710
:103B30007BFBA7480078C0F3C000217AC1F3C00125
:103B400088422ED0207AC108A148007861F3C300D2
:103B50009F490870207AC0F3C00088B103219D48B6
:103B600090F8712300F2723081549A4890F87103F2
:103B7000401C984981F87103ADA0FCF755FB10E09B
:103B80000421944890F8712300F2723081549148D6
:103B900090F87103401C8F4981F87103ACA0FCF7C9
:103BA00043FB8B480078C0F30010217AC1F3001169
:103BB00088422ED0207A01098548007861F30410EC
:103BC00083490870207AC0F3001088B1052181482C
:103BD00090F8712300F2723081547E4890F871039E
:103BE000401C7C4981F87103A1A0FCF71DFB10E08B
:103BF0000621784890F8712300F27230815475489C
:103C000090F87103401C734981F87103A0A0FCF780
:103C10000BFB6F480078C0F34010217AC1F34011CC
:103C200088422ED0207A41096948007861F3451016
:103C300067490870207AC0F3401088B107216548B1
:103C400090F8712300F272308154624890F8710349
:103C5000401C604981F8710396A0FCF7E5FA10E07A
:103C600008215C4890F8712300F272308154594861
:103C700090F87103401C574981F8710394A0FCF738
:103C8000D3FA53484078C0F3C001607AC0F3C00053
:103C900081422ED0607AC1084D48407861F3C3005C
:103CA0004B494870607AC0F3C00088B10B21494885
:103CB00090F8712300F272308154464890F87103F5
:103CC000401C444981F8710389A0FCF7ADFA10E06B
:103CD0000C21404890F8712300F2723081543D4825
:103CE00090F87103401C3B4981F8710387A0FCF7F1
:103CF0009BFA37484078C0F30011607AC0F3001097
:103D000081422ED0607A01093148407861F3041075
:103D10002F494870607AC0F3001088B109212D48FE
:103D200090F8712300F2723081542A4890F87103A0
:103D3000401C284981F871037CA0FCF775FA10E05B
:103D40000A21244890F8712300F2723081542148EE
:103D500090F87103401C1F4981F871037AA0FCF7A9
:103D600063FA0D211B4890F8712300F272308154E0
:103D7000184890F87103401C164981F87103607A65
:103D800000F0070081F8EE03084690F8EE1375A0E6
:103D9000FCF74AFA02200F490870002060E6000094
:103DA00067697A50726F746F636F6C4D6F64756C76
:103DB00065537461747573204572726F72202C2084
:103DC000496C6C6567616C20506172616D0A00001E
:103DD000620000206C0000204F6E426F61726469C7
:103DE0006E673A20536F66744150206F722057659A
:103DF00062206D6F64650A004F6E426F6172646984
:103E00006E673A204169724C696E6B206D6F646514
:103E10000A0000004F6E426F617264696E673A205B
:103E200053746174696F6E206D6F64650A000000E1
:103E300057694669207374617475733A20696E20FE
:103E400062696E64696E67206D6F64650A000000C8
:103E500057694669207374617475733A206F75747D
:103E60002062696E64696E67206D6F64650A000088
:103E700057694669207374617475733A20636F6E75
:103E80006E656374656420726F757465720A0000F4
:103E900057694669207374617475733A2064697355
:103EA000636F6E6E656374656420726F757465729E
:103EB0000A00000057694669207374617475733A8B
:103EC00020636F6E6E6563746564206D326D0A00E9
:103ED00057694669207374617475733A2064697315
:103EE000636F6E6E6563746564206D326D0A0000E9
:103EF00057694669207374617475733A20617070F4
:103F000020636F6E6E6563740A000000576946692E
:103F1000207374617475733A206E6F206170702025
:103F2000636F6E6E6563740A00000000576946692E
:103F3000207374617475733A20696E2074657374AC
:103F4000206D6F64650A00005769466920737461CB
:103F50007475733A206F75742074657374206D6F77
:103F600064650A0052535349206973202564200A6E
:103F70000000000070B5044625462CB919A0FCF7D6
:103F800053F94FF0FF3070BD1B48A9680160A98943
:103F90008180A97B8171A0F57C70D5F80F10C0F8E5
:103FA000F8130146B1F8F003FEF725FD1349A1F817
:103FB000F003D1F8F803FEF72BFD1049C1F8F80320
:103FC0000E210E4890F8872300F5627081540B484B
:103FD00090F88703401C094981F887030420087082
:103FE0000020D0E74552523A204E545020697320A9
:103FF000656D707479200A005C0400206C0000205C
:1040000010B5FFF7C7F8044600BFFFF7C3F8001B61
:10401000B0F5167FF9D901F03DF810BD10B50024B8
:104020000F4890F83D0200B910BD0EA0FCF7FCF857
:104030000B48B0F8551300F23E2001F0EBF90446AE
:104040000748B0F85503A04202D00EA0FCF7ECF8E8
:10405000FFF7A0F80249C1F8570300BFE4E70000EA
:104060006C0000205761726E696E673A2074696D4A
:10407000656F75742C20726573656E64206461745D
:1040800061200A004552523A20726573656E6420C1
:1040900064617461206572726F720A0010B5024625
:1040A0000024002302B109B9002010BD022303E05F
:1040B000D05C2044C4B25B1C481E9842F8D820460D
:1040C000F3E7000070B504460D462CB90EA0FCF7CE
:1040D000ABF84FF0FF3070BD40F21F111048FCF7F5
:1040E0007CFA2A4621460E48801CFCF7D5F90D487B
:1040F000A0F85553012180F83D12FFF74BF809490C
:10410000C1F857030020E6E74552523A2064617433
:104110006120697320656D707479200A00000000C9
:10412000A80200206C00002070B504460A4D2CB98E
:104130000AA0FCF779F84FF0FF3070BD2879401CD9
:104140002179884205D140F21F110348801EFCF7F7
:1041500044FA0020F1E70000AA0200204552523A3A
:10416000206461746120697320656D707479200A20
:104170000000000070B504460D46002624B90AA0D0
:10418000FCF752F8701E70BD2A4621460E4801F019
:1041900031F80646AE4205D00CA0FCF745F84FF0CA
:1041A000FF30F0E73046EEE74552523A2067697A31
:1041B000507574446174612062756620697320656E
:1041C0006D707479200A0000AC0400204552523A08
:1041D000204661696C656420746F20726257726951
:1041E0007465200A000000002DE9F043C7B00646C0
:1041F0000F4690464FF0000901AC08F1060085B269
:104200003FB925A0FCF710F84FF0FF3047B0BDE8EC
:10421000F083FF2004F8010B04F8010B281204F8C6
:10422000010B04F8015B052004F8010B244890F809
:104230003412D0F83402401C214AC2F8340204F887
:10424000011B002004F8010B04F8010B04F8016BBA
:10425000424639460DF10D00FCF71EF9291D01A853
:10426000FFF71CFF0146E81C01AA1154291D01A8F3
:1042700001F0D0F88146B9F1000F06DA494611A0E5
:10428000FBF7D2FF6FF00100C0E7291D01A8FFF77F
:1042900019FF0020BAE7000067697A5265706F72F3
:1042A0007444617461204572726F72202C20496CD5
:1042B0006C6567616C20506172616D0A00000000DE
:1042C0006C0000204552523A20756172742077725A
:1042D000697465206572726F72202564200A00007F
:1042E00002480068401C01490860704764000020D3
:1042F0002DE9F0470546884614461E464FF0000952
:10430000CA460027002314B9581EBDE8F087EB0801
:1043100041462846FEF798FB07463FB9E05C05F0AA
:10432000070106FA01F10843E0541DE0012F1BD1FB
:10433000F0B205F00701C1F1080140FA01F905F0FA
:104340000700C0F10801FF20084100EA060A581CD6
:10435000205C40EA0900591C6054E05C05F007014C
:104360000AFA01F10843E0540020CEE72DE9F04FAE
:104370008FB004460F4690461D460026B246B14611
:10438000B34600200E90B8F1000F00D025B94FF0D1
:10439000FF300FB0BDE8F08F4FEAD4092A464146FE
:1043A00001A8FCF779F8012D09D9294601A8FEF7E3
:1043B00060FBB0F1FF3F02D14FF0FF30E9E7394633
:1043C0002046FEF741FB8246BAF1000F0CD101A84E
:1043D00010F8090004F007010841C7F10802FF21A5
:1043E00011410840064321E0BAF1010F1ED101A995
:1043F00009F10100085C04F00701C1F10801791A14
:10440000C1F10802FF21114100EA010B01A810F8D7
:10441000090004F0070108410E9004F00700C0F104
:1044200008010BFA01F006430E9806433046B0E748
:1044300010B503460020541AB4FBF3F010BD000081
:104440002DE9FF5F07460E4693464FF000083546BC
:10445000B1463446B24607B126B94FF0FF3004B03A
:10446000BDE8F09F4FF00008AAE0781C10F80800A3
:10447000152872D2DFE800F07273749E9E7576770D
:10448000789E9E9E9E7983927F0B233D57002878CD
:104490004E490870084601784DA0FBF7C5FE4B4811
:1044A0000078012807D150490870FDF731FF02203C
:1044B000FDF72EFF02E000204B4908707BE0687892
:1044C000424948700846417848A0FBF7ADFE3F4896
:1044D0004078012806D14448007848B90120FDF70A
:1044E00029FF05E04048007810B90120FDF710FFD2
:1044F00061E0A878354988700846817840A0FBF7CC
:1045000093FE32488078012806D13748007848B9B0
:104510000220FDF70FFF05E03348007810B90220B4
:10452000FDF7F6FE47E0E8782849C8700846C178EC
:104530003AA0FBF779FE2548C078012806D12A4821
:10454000007848B901203B49087005E0264800780A
:1045500010B90120384908702DE02BE02BE02AE04B
:1045600029E028E027E026E025E099F8001033A0B4
:10457000FBF75AFE1FE034A0FBF756FE1BE0A179C3
:1045800062792379A068CDE90032CDE90210E378A1
:10459000A278218831A0FBF747FE0CE03AA0FBF798
:1045A00043FE3EA0FBF740FE9AF800103FA0FBF749
:1045B0003BFE00E000BF00BF08F1010000F0FF0873
:1045C000387840453FF751AF002048E7EA06002021
:1045D0004576743A204556454E545F4D6F64656C80
:1045E000202564200A000000150000204576743A5A
:1045F000204556454E545F46616E202564200A00D2
:104600004576743A204556454E545F48756D696449
:104610006966696572202564200A00004576743A4F
:10462000204556454E545F57696E646F7720256468
:10463000200A0000160000201700002052535349A2
:104640002025640A000000005452414E535041524C
:10465000454E545F44415441200A000057494649A1
:104660005F4E5450203A205B25642D25642D25642F
:1046700020253032643A253032643A253032645D88
:104680005B25645D200A00004D4F44554C45204990
:104690004E464F202E2E2E0A00000000574946207D
:1046A0004D4F44554C45202E2E2E0A006D6F6475DB
:1046B0006C6554797065203A205B25645D200A00A2
:1046C0002DE9F047ADF5107D0646002700250020B6
:1046D000039002900024814680463EB990A0FBF7EB
:1046E000A3FD601E0DF5107DBDE8F087FEF758FDB7
:1046F00003AA95499548FEF7F7FE0746002F70D1AB
:1047000093A0FBF791FDFEF745FD8246BDF80C2016
:10471000514694A0FBF788FD002506E08A48415DDC
:1047200095A0FBF781FD681C85B2BDF80C008542A1
:10473000F4DB93A0FBF778FD834C20790F2851D050
:104740000ADC0E2874D2DFE800F07316731A737354
:10475000443973734573463D182854D006DC11283C
:1047600049D0142848D0162862D135E0222854D0E8
:104770002A285DD131E02046FEF7FCFD60E0E279B9
:10478000A17980A0FBF750FD02A8009008F1090074
:10479000BDF80C301A1A6C48083000EB080104AB65
:1047A0004846FFF769F840B9E37904A92046029A20
:1047B000FEF7C2FF77A0FBF737FD41E02046FEF78A
:1047C00037FD3DE02046FEF733FD2046FFF740F978
:1047D00036E000BF00BF00BF00BF2046FFF7A4FCCB
:1047E0002EE02EE02046FEF723FD6DA0FBF71CFD1A
:1047F000FFF706FC24E023E02046FFF795FC6DA0C0
:10480000FBF712FD1CE02046FFF78EFC2046FFF769
:10481000B1FB70A0FBF708FD12E02046FFF784FC17
:104820002046FFF7E7F871A0FBF7FEFC08E0FFE782
:1048300002212046FEF74CFD73A0FBF7F5FC00BFFC
:104840000DE017F1020F0AD13F4C01212046FEF77F
:104850003FFD73A0FBF7E8FC6FF0010042E73A4828
:10486000401E0078062854D2DFE800F053031324DA
:10487000314200203449491E0870152201F571713A
:10488000A1F16900FFF7DCFD16216B48FBF783FE01
:1048900040E000202C49491E0870012201F2EE314F
:1048A000A1F17D00FFF7CCFD162163481630FBF720
:1048B00072FE2FE000202449491E0870084600F5CA
:1048C0008C71D0F830225C48FFF7BAFD22E000205E
:1048D0001D49491E08700C2201F57C71A1F1690087
:1048E000FFF7AEFD162154482C30FBF754FE11E0C3
:1048F00000201549491E0870412201F57F71A1F180
:104900005F00FFF79DFD41214B484230FBF743FE1E
:1049100000E000BF00BF3046FEF7CAFB0020E1E622
:1049200047697A7769747348616E646C6520457273
:10493000726F72202C20496C6C6567616C2050612D
:1049400072616D0A000000006D000020AC040020C0
:10495000476574204F6E65205061636B6574210A52
:104960000000000057694669324D43555B253464A9
:104970003A2534645D3A200025303278200000006A
:104980000A000000666C6167202578202578200ADF
:104990000000000041636B44617461203A200A000A
:1049A0007265706F72743A4D4355207265626F6F15
:1049B00074210A0041636B2050524F4455435449BF
:1049C0004F4E5F4D4F44452073756363657373208D
:1049D0000A00000041636B204745545F5554542042
:1049E00073756363657373200A00000041636B2075
:1049F0004745545F4D6F64756C65207375636365DF
:104A00007373200A000000004552523A20636D641F
:104A100020636F6465206572726F72210A00000066
:104A20004552523A20636865636B2073756D20654B
:104A300072726F72210A0000C703002010B540F2A5
:104A40002E200A4908600A48C860084600F05AFB50
:104A500018B908A0FBF7E8FB02E00BA0FBF7E4FBAA
:104A60004FF488610D48FBF7B8FD10BDAC04002081
:104A7000BC040020726243726561746520537563E3
:104A800063657373200A0000726243726561746526
:104A9000204661696C64200A000000006C00002060
:104AA00030B587B005460024062D7CD2DFE805F03E
:104AB00003305F90BDEA01A8FEF716FE0B208DF8CB
:104AC00008008B4890F83412D0F83402401C884A11
:104AD000C2F83402C8B28DF809000520FDF78BFF3B
:104AE000ADF80600092101A8FFF7D8FA8DF80C00EF
:104AF000092101A800F08EFC0446002C03DA2146AF
:104B00007CA0FBF791FB092101A8FFF7DBFAEAE0A3
:104B100004A8FEF7E9FD09208DF81400744890F808
:104B20003412D0F83402401C714AC2F83402C8B2C0
:104B30008DF815008DF818500620FDF75CFFADF8D4
:104B400012000A2104A8FFF7A9FA8DF819000A211A
:104B500004A800F05FFC0446002C03DA214665A09F
:104B6000FBF762FB0A2104A8FFF7ACFABBE004A83C
:104B7000FEF7BAFD09208DF814005D4890F8341254
:104B8000D0F83402401C5A4AC2F83402C8B28DF838
:104B900015008DF818500620FDF72DFFADF8120016
:104BA0000A2104A800E09AE0FFF778FA8DF81900CE
:104BB0000A2104A800F02EFC0446002C03DA21464A
:104BC0004CA0FBF731FB0A2104A8FFF77BFA8AE02F
:104BD00001A8FEF789FD13208DF80800444890F8DD
:104BE0003412D0F83402401C414AC2F83402C8B230
:104BF0008DF809000520FDF7FEFEADF8060009213D
:104C000001A8FFF74BFA8DF80C00092101A800F06C
:104C100001FC0446002C03DA214636A0FBF704FB16
:104C2000092101A8FFF74EFA5DE001A8FEF75CFD3F
:104C300015208DF808002E4890F83412D0F8340270
:104C4000401C2B4AC2F83402C8B28DF80900052076
:104C5000FDF7D1FEADF80600092101A8FFF71EFA05
:104C60008DF80C00092101A800F0D4FB0446002CAB
:104C700003DA21461FA0FBF7D7FA092101A8FFF7A5
:104C800021FA30E001A8FEF72FFD29208DF8080059
:104C9000174890F83412D0F83402401C144AC2F875
:104CA0003402C8B28DF809000520FDF7A4FEADF866
:104CB0000600092101A8FFF7F1F98DF80C00092180
:104CC00001A800F0A7FB0446002C03DA214609A046
:104CD000FBF7AAFA092101A8FFF7F4F903E00CA0F9
:104CE000FBF7A2FA00BF00BF204607B030BD0000AE
:104CF0006C0000204552523A207561727420777220
:104D0000697465206572726F72202564200A000044
:104D10004552523A204366674D6F64652065727252
:104D20006F72210A0000000008B54FF4A060FCF784
:104D3000E1FFFDF777F8FBF739FDFCF79FF8FCF78B
:104D400049FEFBF76BFFFCF703FEFCF775FAFDF776
:104D5000C9FAFBF747FEC048FCF700F8BF490870E6
:104D6000BD48801CFBF7FAFFBD490870BA48001D1A
:104D7000FBF7F4FFBB490880B748801DFBF7EEFF47
:104D8000B949088043F63E010920FDF7D7FC4FF4EE
:104D9000165000F0EDFA4FF4E13000F097FAFCF70E
:104DA00027F800F0B7FBFFF749FEFCF7F1F952E1F5
:104DB000FCF728FAAD480078012804D0022823D057
:104DC000032820D138E0FCF733FEA94800780128F9
:104DD0000AD10123B42200211846FCF705FCFCF798
:104DE000ADFD0020A2490870A248007801280AD130
:104DF0000123B42200210846FCF7F6FBFCF79EFDD8
:104E000000209C49087020E1FCF77EFFFCF7D2FEF1
:104E10000320964908709148007897490870904897
:104E20000078964908708F480088954908808E4818
:104E300000889449088008E10223884802780D21FF
:104E40000120FDF733F90223854802780D21184629
:104E5000FDF72CF90423834802880D210320FDF778
:104E600025F90423804802880D211846FDF71EF914
:104E70008548007801280DD10020834908708348B7
:104E80000078401C8149087008460078042801DD3C
:104E9000012008707D480078FDF71BF87B480078FA
:104EA000012806D0022829D003284CD0042824D178
:104EB00071E07548007803280DD100207249087010
:104EC00066480078401C65490870084600786428E8
:104ED00001DB012008706C48007804280DD1002007
:104EE000694908705D480078401E5C4908700846B2
:104EF0000078642801DB6320087074E06248007861
:104F000003280DD100206049087055480078401CE6
:104F10005349087008460078642801DB01200870B6
:104F20005948007804280DD10020574908704C4892
:104F30000078401E4A49087008460078642801DB62
:104F4000632008704FE05048007803280ED10020FD
:104F50004D49087043480088401C42490880084673
:104F60000088B0F5A57F01DD012008804648007863
:104F700004280FD10020444908703A480088401E98
:104F80003849088008460088B0F5A57F02DD4FF457
:104F9000A570088027E03C48007803280ED1002047
:104FA0003949087030480088401C2F49088008465D
:104FB0000088B0F5FA7F01DD0120088032480078D2
:104FC00004280FD100203049087027480088401E6F
:104FD0002549088008460088B0F5FA7F02DD4FF4C5
:104FE000FA70088000BF00BF2748007802282BD144
:104FF000002025490870204800781849097888421F
:1050000011D11E4800781649097888420BD11C48F6
:10501000008814490988884205D11A480088124935
:10502000098888420BD01048008800900D480388FA
:105030000B480278094801780748FBF79FFE0120DA
:105040000A490870FCF760FE00BF00BF00F03CFAA0
:105050000F48FFF735FBABE600F001081800002011
:10506000190000201A0000201C000020140000205D
:1050700016000020170000201E0000201F00002046
:1050800020000020220000204800002024000020F2
:10509000EA060020012080F3138800BF704700B5A6
:1050A000024612B94FF0FF3000BD90685168884247
:1050B00001D10020F8E750689168884203D29068D7
:1050C0005168401AF0E7104600F015F851689368EF
:1050D000C91AC1EB4000E7E730B5044614B94FF0F8
:1050E000FF3030BD204600F006F805462046FFF7A9
:1050F000D6FF281AF5E7014611B94FF0FF30704787
:105100000868FCE7014611B94FF0FF3070470020F6
:105110004860886000BFF9E72DE9F04104460F467A
:105120001646002504B11FB94FF0FF30BDE8F081ED
:105130006068A16888421AD22046FFF7B0FFB042EB
:1051400001D3304602E02046FFF7A9FF054620467E
:1051500000F041F8E16800EB01082A464146384674
:10516000FBF79AF96068284460602846DEE720462D
:10517000FFF7C1FF6168C1EB4000B04210D935466E
:10518000204600F028F8E16800EB01082A46414675
:105190003846FBF781F96068284460602846C5E717
:1051A0002046FFF7A8FF6168C1EB4005204600F0EC
:1051B00012F8E16800EB01082A4641463846FBF741
:1051C0006BF900206060721B79192046FFF7A4FF7D
:1051D00005442846AAE7014611B94FF0FF30704751
:1051E00048680A68904203D348680A68801AF6E75C
:1051F0004868F4E72DE9F04104460F4615460026BD
:1052000004B11FB94FF0FF30BDE8F0812046FFF731
:1052100063FFA84202D26FF00100F5E7A068616861
:10522000884234D32046FFF766FFA168C1EB4006F1
:10523000AE4218D3204600F03AF8E16800EB0108CE
:105240002A4639464046FBF727F9A0682844A06063
:105250002046FFF750FF4000A168884201D8002097
:10526000A0602846D0E7204600F021F8E16800EB76
:105270000108324639464046FBF70EF90020A0608F
:10528000AA1BB9192046FFF7B5FF3044BCE72046FA
:1052900000F00DF8E16800EB01082A463946404667
:1052A000FBF7FAF8A0682844A0602846ACE701465E
:1052B00011B94FF0FF30704788680A68904203D3F5
:1052C00088680A68801AF6E78868F4E710B586B03F
:1052D0000446012144F20400FCF75CFF4FF4007027
:1052E000ADF8140003208DF8160018208DF8170073
:1052F00005A91D48FBF7E6FD4FF48060ADF81400EA
:1053000004208DF8170005A91748FBF7DBFD2520C1
:105310008DF8000000208DF8010003208DF80200B8
:1053200001208DF803006846FCF7ACFC01940020D6
:10533000ADF80800ADF80A00ADF80C00ADF81000AB
:105340000C20ADF80E0001A90848FDF7B1FA0122C2
:1053500040F225510548FDF786FA01210348FDF783
:105360003FFA06B010BD00000008014000380140BF
:1053700010B586B0044601214804FCF7FBFE01216C
:105380000420FCF707FF0420ADF8140003208DF87B
:10539000160018208DF8170005A91C48FBF792FD90
:1053A0000820ADF8140004208DF8170005A917484F
:1053B000FBF788FD26208DF8000000208DF8010005
:1053C00002208DF8020001208DF803006846FCF7EA
:1053D00059FC01940020ADF80800ADF80A00ADF8C2
:1053E0000C00ADF810000C20ADF80E0001A9084823
:1053F000FDF75EFA012240F225510548FDF733FA28
:1054000001210348FDF7ECF906B010BD000801408A
:10541000004400402DE9F04105460E46002415B930
:10542000601EBDE8F08100241BE0295D1D48FDF7EA
:10543000B0FA00BF40211B48FDF7DEF90028F9D083
:10544000022C0DD3285DFF280AD155211548FDF700
:10545000A0FA00BF40211348FDF7CEF90028F9D08B
:10546000641CB442E1D3FDF795FE07463246394647
:105470000DA0FAF7D9FE00240DE0295D0FA0FAF780
:10548000D3FE022C06D3285DFF2803D155210BA0A3
:10549000FAF7CAFE641CB442EFD30AA0FAF7C4FEBE
:1054A0003046BEE7004400404D43553257694669D7
:1054B0005B2534643A2534645D3A20002530327827
:1054C000200000000A0000000C48007808B101200C
:1054D00000E000200A4908710A480078C1F8050078
:1054E00009480078C1F8090008480088C1F80D0093
:1054F00007480088C1F81100704700002E00002006
:10550000EA06002027000020260000202A000020B4
:105510002800002010B515210148FBF73CF810BD0C
:10552000EA06002010B591EA030F48BF83F000435C
:1055300000F1D681841A71EB030C05D2121943EBEA
:105540000C03001B61EB0C01DFF824E14FEA11545E
:10555000A4EB135C1EEA430F18BF9EEA445F73D0AE
:1055600023EA0E03DCF1200E21EA045143F48013F8
:1055700032D322FA0CFE10EB0E0023FA0CFE41EBA4
:105580000E01CCF1200E03FA0EFE10EB0E0051F1CD
:105590000001B1F5801FCCF1200E32D201EB045195
:1055A00012FA0EF2BDE8104058BF7047401C38BFD9
:1055B0005FEA420218BF7047002814BF20F00100C4
:1055C00041F100014FEA410313F5001F38BF704756
:1055D000A1F1C04100F076B9012A43EB0302ACF11E
:1055E000200CDCF11F0E32BF4FF0000E23FA0CF33B
:1055F00010EB030041EB0451B4EB115FD0D0A1EBF1
:10560000045101F5801149085FEA300001EB0451B3
:105610000ED350F1000038BF12FA0EFE08D1BDE8DB
:105620001040C9E7401C38BF5FEA4202CAD1C3E755
:10563000BDE810404FEA410313F5001F38BF704723
:10564000A1F1C04100F03EB99EEA445F08D011EAE2
:105650005E0FBDE8104004BF01F00041002070471C
:10566000BDE8104070B500F0DFF800BF64FBBE3E3F
:105670000000E0FF4FEA41034FEA5353A3F5806374
:10568000D3F11E03C8BFD3F1210C0CDD4FF0004253
:1056900042EAC12242EA505232FA03FC8CEAE17C2F
:1056A000ACEBE1707047102BC4BF0020704703F5CE
:1056B000787CBCF1FF3F04D06FF0004282EA210009
:1056C000704770B500F0B0F8499224800020704710
:1056D000F2E70000DFF848C170B51CEA111E1EBFDA
:1056E0001CEA13159EEA0C0F95EA0C0F00F06F8070
:1056F00081EA030423EA4C134EEAD47E21EA4C11DA
:1057000041F4801143F48013AE44A1FB024CA0FB92
:105710000365AEF17F7E361955EB0C05A1FB034CFA
:105720004CF10003A0FB021C16EB0C06654153F183
:105730000003094218BF46F0010613F4007F0BD1A5
:105740004FEA03314FEA0530340341EA155140EA8C
:1057500016506FF003020AE04FEAC3214FEAC5205A
:10576000F40241EA555140EA56506FF0020202EB52
:105770002E4201EB025585EACE710AD05FEA440C55
:1057800018BF24F0004450F1000041F1000120EA6C
:10579000D47040F2FE7C624500D270BDA84214BFB6
:1057A0004FF080444FF04044002E08BF0024BEF16B
:1057B000806FA8BFA1F1C041BDE8704080F2828037
:1057C0004FF0000001F1C04101F0004170479EEA36
:1057D0000C0F0CEA131518BF95EA0C0F06D04FF00A
:1057E000000081EA030E0EF0004170BD00F01CF8CD
:1057F0008900013E00F007B800F009B84FEA430CF9
:105800005FEA5C5C08D081EA030100F05BB84FEA14
:10581000410C5FEA5C5CF6D14FF000000149704733
:105820000000FF070000F87F0EF1020E2EF0030EBD
:105830005EF8046B364205D4012A43EB030515F5E7
:10584000001F12D8012841EB010C1CF5001F0CD8D9
:105850000ED14FEAD17C15F5001F0CEB4C0C0CF16E
:10586000020C08BF4CEBD37C04E04FF0080C01E0C5
:105870004FEAD37C0CEB4C0526FA05F606F007063A
:10588000B6F1040C06D20EEB860CBDE870404CF06D
:10589000010C6047DFE80CF0090B02024FF00041F9
:1058A0004FF00000A1F5002170BD194610460128F7
:1058B00051EB010418BFD4F5001484BF002001F09F
:1058C000004170BD0808A0F500114FEA3101704792
:1058D00010B591EA030F48BF83F000433FF52AAEAD
:1058E000841A71EB030C07D212198CF0004C43EBB5
:1058F0000C03001B61EB0C01DFF8A4E14FEA11542B
:10590000A4EB135C1EEA430F18BF9EEA445F00F04D
:10591000B08023EA6E03524221EA0451C3EB6E03C6
:1059200038BF5B1EDCF1200E25D322FA0CFE10EBF3
:105930000E0043FA0CFE41EB0E01CCF1200E03FAEF
:105940000EFE10EB0E0051F10001CCF1200E29D417
:1059500012FA0EF201EB0451BDE8104058BF704737
:10596000401C1CBFB2F1004F704700280CBF491CFF
:1059700020F00100704712EB020E43EB030218BF48
:105980004FF0010E4EEA4202ACF1200CDCF11E0E8B
:1059900054D943FA0CFE10EB0E0051F1FF31CCF15B
:1059A0001E0ED5D50EF1010E12FA0EFE404141EB4E
:1059B000010101EB445C5FEA5C5C10D910EBDE7026
:1059C00001EB045138BFBEF1004FBDE8104018BFD5
:1059D000704700280CBF491C20F00100704730D2EE
:1059E0004FEAD42C11F5001124F400641BD0B1FA55
:1059F00081F20B3AA41AA41ED2F12003914030FA8E
:105A000003F31943904001EBCC71002C01EB0451DE
:105A1000BDE81040A8BF704701F1C0414FF0000041
:105A200001F000417047B0FA80F310FA03F100D1A1
:105A300010BDE41A173C4805C90AE4E701EB04511C
:105A400010BD491001EB0451BDE810404FEA300091
:105A500002E04FF0000170474A0008BF0042F8D052
:105A6000B2F5001F28BF704701F000414FF0000061
:105A700070479EEA445F07D011EA5E0FBDE8104010
:105A800004BF002100207047BDE8104070B5FFF74B
:105A9000CBFE00BF40DFF63E83F00041104670476A
:105AA0000000E0FF43004FEAD30C4FEA3C0C4340B8
:105AB0001FBF40070CF1605113F0FE4F70471CF000
:105AC000006F03D100200CF0004170470CF0004340
:105AD00043EA507010B540EACC0000F086F900BFF0
